{
  "contractName": "Deliverables",
  "abi": [
    {
      "constant": true,
      "inputs": [],
      "name": "userDeliverables",
      "outputs": [
        {
          "name": "",
          "type": "uint256"
        }
      ],
      "payable": false,
      "stateMutability": "view",
      "type": "function"
    },
    {
      "constant": false,
      "inputs": [
        {
          "name": "_name",
          "type": "string"
        },
        {
          "name": "_amount",
          "type": "uint256"
        }
      ],
      "name": "createTask",
      "outputs": [],
      "payable": false,
      "stateMutability": "nonpayable",
      "type": "function"
    },
    {
      "constant": true,
      "inputs": [
        {
          "name": "id",
          "type": "uint256"
        }
      ],
      "name": "getTask",
      "outputs": [
        {
          "name": "",
          "type": "uint256"
        },
        {
          "name": "",
          "type": "string"
        },
        {
          "name": "",
          "type": "bool"
        }
      ],
      "payable": false,
      "stateMutability": "view",
      "type": "function"
    }
  ],
  "bytecode": "0x60806040526000805534801561001457600080fd5b5061047e806100246000396000f3fe608060405260043610610051576000357c01000000000000000000000000000000000000000000000000000000009004806304fe2b34146100565780631d65e77e146101285780632a68cc46146101ee575b600080fd5b34801561006257600080fd5b506101266004803603604081101561007957600080fd5b810190808035906020019064010000000081111561009657600080fd5b8201836020820111156100a857600080fd5b803590602001918460018302840111640100000000831117156100ca57600080fd5b91908080601f016020809104026020016040519081016040528093929190818152602001838380828437600081840152601f19601f82011690508083019250505050505050919291929080359060200190929190505050610219565b005b34801561013457600080fd5b506101616004803603602081101561014b57600080fd5b81019080803590602001909291905050506102bd565b604051808481526020018060200183151515158152602001828103825284818151815260200191508051906020019080838360005b838110156101b1578082015181840152602081019050610196565b50505050905090810190601f1680156101de5780820380516001836020036101000a031916815260200191505b5094505050505060405180910390f35b3480156101fa57600080fd5b506102036103a7565b6040518082815260200191505060405180910390f35b6000808154809291906001019190505550608060405190810160405280600054815260200183815260200182815260200160001515815250600160008054815260200190815260200160002060008201518160000155602082015181600101908051906020019061028b9291906103ad565b506040820151816002015560608201518160030160006101000a81548160ff0219169083151502179055509050505050565b60006060600083600160008681526020019081526020016000206001016001600087815260200190815260200160002060030160009054906101000a900460ff16818054600181600116156101000203166002900480601f0160208091040260200160405190810160405280929190818152602001828054600181600116156101000203166002900480156103935780601f1061036857610100808354040283529160200191610393565b820191906000526020600020905b81548152906001019060200180831161037657829003601f168201915b505050505091509250925092509193909250565b60005481565b828054600181600116156101000203166002900490600052602060002090601f016020900481019282601f106103ee57805160ff191683800117855561041c565b8280016001018555821561041c579182015b8281111561041b578251825591602001919060010190610400565b5b509050610429919061042d565b5090565b61044f91905b8082111561044b576000816000905550600101610433565b5090565b9056fea165627a7a72305820d97c77eeff511c880da8ef5c5b41bfbc1f09ba4a32b2d0899967fb0436837d500029",
  "source": "pragma solidity ^0.5.0;\n\ncontract Deliverables {\n   uint public userDeliverables = 0;\n\n  struct Deliverable {\n        uint id;\n        string name;\n        uint amount;\n        bool completed;\n    }\n\n  mapping(uint => Deliverable) deliverables;\n\n  function createTask(string memory _name, uint _amount ) public {\n    userDeliverables++;\n    deliverables[userDeliverables] = Deliverable(userDeliverables, _name, _amount, false);\n  }\n\n  function getTask(uint id) public view returns(uint, string memory, bool){\n     return (\n         id,\n         deliverables[id].name,\n         deliverables[id].completed\n         );\n  }\n\n\n}\n",
  "sourcePath": "/Users/lafountain/Desktop/the ideas/Deliverables/contracts/Deliverables.sol",
  "compiler": {
    "name": "solc",
    "version": "0.5.1+commit.c8a2cb62.Emscripten.clang"
  },
  "schemaVersion": "3.0.9",
  "updatedAt": "2019-06-09T20:35:59.695Z",
  "devdoc": {
    "methods": {}
  },
  "userdoc": {
    "methods": {}
  }
}