{
  "contractName": "Deliverables",
  "abi": [
    {
      "constant": true,
      "inputs": [],
      "name": "status",
      "outputs": [
        {
          "name": "",
          "type": "bool"
        }
      ],
      "payable": false,
      "stateMutability": "view",
      "type": "function"
    },
    {
      "constant": true,
      "inputs": [],
      "name": "task",
      "outputs": [
        {
          "name": "",
          "type": "string"
        }
      ],
      "payable": false,
      "stateMutability": "view",
      "type": "function"
    },
    {
      "constant": true,
      "inputs": [],
      "name": "payment",
      "outputs": [
        {
          "name": "",
          "type": "uint256"
        }
      ],
      "payable": false,
      "stateMutability": "view",
      "type": "function"
    },
    {
      "constant": true,
      "inputs": [],
      "name": "earliest",
      "outputs": [
        {
          "name": "",
          "type": "uint256"
        }
      ],
      "payable": false,
      "stateMutability": "view",
      "type": "function"
    },
    {
      "inputs": [
        {
          "name": "_task",
          "type": "string"
        },
        {
          "name": "_earliest",
          "type": "uint256"
        },
        {
          "name": "_payment",
          "type": "uint256"
        },
        {
          "name": "_status",
          "type": "bool"
        }
      ],
      "payable": true,
      "stateMutability": "payable",
      "type": "constructor"
    }
  ],
  "bytecode": "0x60806040526040516103fd3803806103fd8339810180604052608081101561002657600080fd5b81019080805164010000000081111561003e57600080fd5b8281019050602081018481111561005457600080fd5b815185600182028301116401000000008211171561007157600080fd5b505092919060200180519060200190929190805190602001909291908051906020019092919050505083600190805190602001906100b09291906100e4565b508242016002819055508160038190555080600460006101000a81548160ff02191690831515021790555050505050610189565b828054600181600116156101000203166002900490600052602060002090601f016020900481019282601f1061012557805160ff1916838001178555610153565b82800160010185558215610153579182015b82811115610152578251825591602001919060010190610137565b5b5090506101609190610164565b5090565b61018691905b8082111561018257600081600090555060010161016a565b5090565b90565b610265806101986000396000f3fe608060405260043610610062576000357c0100000000000000000000000000000000000000000000000000000000900463ffffffff168063200d2ed2146100675780633283f6411461009657806342f6487a146101265780635dd65d3b14610151575b600080fd5b34801561007357600080fd5b5061007c61017c565b604051808215151515815260200191505060405180910390f35b3480156100a257600080fd5b506100ab61018f565b6040518080602001828103825283818151815260200191508051906020019080838360005b838110156100eb5780820151818401526020810190506100d0565b50505050905090810190601f1680156101185780820380516001836020036101000a031916815260200191505b509250505060405180910390f35b34801561013257600080fd5b5061013b61022d565b6040518082815260200191505060405180910390f35b34801561015d57600080fd5b50610166610233565b6040518082815260200191505060405180910390f35b600460009054906101000a900460ff1681565b60018054600181600116156101000203166002900480601f0160208091040260200160405190810160405280929190818152602001828054600181600116156101000203166002900480156102255780601f106101fa57610100808354040283529160200191610225565b820191906000526020600020905b81548152906001019060200180831161020857829003601f168201915b505050505081565b60035481565b6002548156fea165627a7a723058200baa270ed44d562d47b77a3d6a7f7ad9d7a90899e9f2cc1452d3d02e2fb31d360029",
  "source": "pragma solidity ^0.5.0;\n\ncontract Deliverables{\n    address payable contractor;\n    string public task;\n    uint public earliest;\n    uint public payment;\n    bool public status;\n\n    constructor(string memory _task, uint _earliest, uint _payment, bool _status) payable public {\n      task = _task;\n      earliest = now + _earliest;\n      payment = _payment;\n      status = _status;\n    }\n\n    // function claimPayment(address payable contractor) payable public{\n    //     // confirm project completed\n    //     // update complete bool\n    //     // send out payment to contractor\n    // }\n}",
  "sourcePath": "/Users/lafountain/Desktop/the ideas/Deliverables/contracts/Deliverable.sol",
  "compiler": {
    "name": "solc",
    "version": "0.5.0+commit.1d4f565a.Emscripten.clang"
  },
  "schemaVersion": "3.0.9",
  "updatedAt": "2019-06-09T15:42:29.269Z",
  "devdoc": {
    "methods": {}
  },
  "userdoc": {
    "methods": {}
  }
}